{
  "address": "0x7A03a351Ae970Bd0b810e09f25C1CC86F29aC68a",
  "abi": [
    {
      "inputs": [
        {
          "internalType": "address",
          "name": "_studentRegistry",
          "type": "address"
        }
      ],
      "stateMutability": "nonpayable",
      "type": "constructor"
    },
    {
      "inputs": [
        {
          "internalType": "address",
          "name": "owner",
          "type": "address"
        }
      ],
      "name": "OwnableInvalidOwner",
      "type": "error"
    },
    {
      "inputs": [
        {
          "internalType": "address",
          "name": "account",
          "type": "address"
        }
      ],
      "name": "OwnableUnauthorizedAccount",
      "type": "error"
    },
    {
      "anonymous": false,
      "inputs": [
        {
          "indexed": true,
          "internalType": "uint256",
          "name": "epochId",
          "type": "uint256"
        },
        {
          "indexed": false,
          "internalType": "uint256",
          "name": "startTime",
          "type": "uint256"
        },
        {
          "indexed": false,
          "internalType": "uint256",
          "name": "endTime",
          "type": "uint256"
        }
      ],
      "name": "EpochCreated",
      "type": "event"
    },
    {
      "anonymous": false,
      "inputs": [
        {
          "indexed": true,
          "internalType": "uint256",
          "name": "epochId",
          "type": "uint256"
        }
      ],
      "name": "EpochFinalized",
      "type": "event"
    },
    {
      "anonymous": false,
      "inputs": [
        {
          "indexed": true,
          "internalType": "address",
          "name": "previousOwner",
          "type": "address"
        },
        {
          "indexed": true,
          "internalType": "address",
          "name": "newOwner",
          "type": "address"
        }
      ],
      "name": "OwnershipTransferred",
      "type": "event"
    },
    {
      "anonymous": false,
      "inputs": [
        {
          "indexed": true,
          "internalType": "address",
          "name": "vault",
          "type": "address"
        }
      ],
      "name": "VaultRegistered",
      "type": "event"
    },
    {
      "anonymous": false,
      "inputs": [
        {
          "indexed": true,
          "internalType": "uint256",
          "name": "epochId",
          "type": "uint256"
        },
        {
          "indexed": true,
          "internalType": "address",
          "name": "vault",
          "type": "address"
        },
        {
          "indexed": true,
          "internalType": "address",
          "name": "voter",
          "type": "address"
        },
        {
          "indexed": false,
          "internalType": "address[]",
          "name": "students",
          "type": "address[]"
        },
        {
          "indexed": false,
          "internalType": "uint256[]",
          "name": "votes",
          "type": "uint256[]"
        }
      ],
      "name": "VotesAllocated",
      "type": "event"
    },
    {
      "anonymous": false,
      "inputs": [
        {
          "indexed": true,
          "internalType": "uint256",
          "name": "epochId",
          "type": "uint256"
        },
        {
          "indexed": true,
          "internalType": "address",
          "name": "vault",
          "type": "address"
        },
        {
          "indexed": false,
          "internalType": "uint256",
          "name": "totalYield",
          "type": "uint256"
        },
        {
          "indexed": false,
          "internalType": "uint256",
          "name": "studentShare",
          "type": "uint256"
        }
      ],
      "name": "YieldDistributed",
      "type": "event"
    },
    {
      "inputs": [],
      "name": "BPS_DENOMINATOR",
      "outputs": [
        {
          "internalType": "uint256",
          "name": "",
          "type": "uint256"
        }
      ],
      "stateMutability": "view",
      "type": "function"
    },
    {
      "inputs": [],
      "name": "EPOCH_DURATION",
      "outputs": [
        {
          "internalType": "uint256",
          "name": "",
          "type": "uint256"
        }
      ],
      "stateMutability": "view",
      "type": "function"
    },
    {
      "inputs": [],
      "name": "RETAIL_SHARE_BPS",
      "outputs": [
        {
          "internalType": "uint256",
          "name": "",
          "type": "uint256"
        }
      ],
      "stateMutability": "view",
      "type": "function"
    },
    {
      "inputs": [],
      "name": "STUDENT_SHARE_BPS",
      "outputs": [
        {
          "internalType": "uint256",
          "name": "",
          "type": "uint256"
        }
      ],
      "stateMutability": "view",
      "type": "function"
    },
    {
      "inputs": [],
      "name": "WHALE_SHARE_BPS",
      "outputs": [
        {
          "internalType": "uint256",
          "name": "",
          "type": "uint256"
        }
      ],
      "stateMutability": "view",
      "type": "function"
    },
    {
      "inputs": [
        {
          "internalType": "address",
          "name": "vault",
          "type": "address"
        },
        {
          "internalType": "address[]",
          "name": "students",
          "type": "address[]"
        },
        {
          "internalType": "uint256[]",
          "name": "voteAmounts",
          "type": "uint256[]"
        }
      ],
      "name": "allocateVotes",
      "outputs": [],
      "stateMutability": "nonpayable",
      "type": "function"
    },
    {
      "inputs": [],
      "name": "currentEpochId",
      "outputs": [
        {
          "internalType": "uint256",
          "name": "",
          "type": "uint256"
        }
      ],
      "stateMutability": "view",
      "type": "function"
    },
    {
      "inputs": [
        {
          "internalType": "uint256",
          "name": "epochId",
          "type": "uint256"
        },
        {
          "internalType": "address",
          "name": "vault",
          "type": "address"
        }
      ],
      "name": "distributeYield",
      "outputs": [],
      "stateMutability": "nonpayable",
      "type": "function"
    },
    {
      "inputs": [
        {
          "internalType": "uint256",
          "name": "",
          "type": "uint256"
        }
      ],
      "name": "epochs",
      "outputs": [
        {
          "internalType": "uint256",
          "name": "id",
          "type": "uint256"
        },
        {
          "internalType": "uint256",
          "name": "startTime",
          "type": "uint256"
        },
        {
          "internalType": "uint256",
          "name": "endTime",
          "type": "uint256"
        },
        {
          "internalType": "bool",
          "name": "isFinalized",
          "type": "bool"
        }
      ],
      "stateMutability": "view",
      "type": "function"
    },
    {
      "inputs": [],
      "name": "finalizeEpoch",
      "outputs": [],
      "stateMutability": "nonpayable",
      "type": "function"
    },
    {
      "inputs": [],
      "name": "getCurrentEpoch",
      "outputs": [
        {
          "components": [
            {
              "internalType": "uint256",
              "name": "id",
              "type": "uint256"
            },
            {
              "internalType": "uint256",
              "name": "startTime",
              "type": "uint256"
            },
            {
              "internalType": "uint256",
              "name": "endTime",
              "type": "uint256"
            },
            {
              "internalType": "bool",
              "name": "isFinalized",
              "type": "bool"
            }
          ],
          "internalType": "struct AllocationManager.Epoch",
          "name": "",
          "type": "tuple"
        }
      ],
      "stateMutability": "view",
      "type": "function"
    },
    {
      "inputs": [],
      "name": "getEpochCount",
      "outputs": [
        {
          "internalType": "uint256",
          "name": "",
          "type": "uint256"
        }
      ],
      "stateMutability": "view",
      "type": "function"
    },
    {
      "inputs": [],
      "name": "getRegisteredVaults",
      "outputs": [
        {
          "internalType": "address[]",
          "name": "",
          "type": "address[]"
        }
      ],
      "stateMutability": "view",
      "type": "function"
    },
    {
      "inputs": [
        {
          "internalType": "uint256",
          "name": "epochId",
          "type": "uint256"
        },
        {
          "internalType": "address",
          "name": "vault",
          "type": "address"
        },
        {
          "internalType": "address",
          "name": "student",
          "type": "address"
        }
      ],
      "name": "getStudentVotes",
      "outputs": [
        {
          "internalType": "uint256",
          "name": "",
          "type": "uint256"
        }
      ],
      "stateMutability": "view",
      "type": "function"
    },
    {
      "inputs": [
        {
          "internalType": "address",
          "name": "",
          "type": "address"
        }
      ],
      "name": "isVaultRegistered",
      "outputs": [
        {
          "internalType": "bool",
          "name": "",
          "type": "bool"
        }
      ],
      "stateMutability": "view",
      "type": "function"
    },
    {
      "inputs": [],
      "name": "owner",
      "outputs": [
        {
          "internalType": "address",
          "name": "",
          "type": "address"
        }
      ],
      "stateMutability": "view",
      "type": "function"
    },
    {
      "inputs": [
        {
          "internalType": "address",
          "name": "vault",
          "type": "address"
        }
      ],
      "name": "registerVault",
      "outputs": [],
      "stateMutability": "nonpayable",
      "type": "function"
    },
    {
      "inputs": [
        {
          "internalType": "uint256",
          "name": "",
          "type": "uint256"
        }
      ],
      "name": "registeredVaults",
      "outputs": [
        {
          "internalType": "address",
          "name": "",
          "type": "address"
        }
      ],
      "stateMutability": "view",
      "type": "function"
    },
    {
      "inputs": [],
      "name": "renounceOwnership",
      "outputs": [],
      "stateMutability": "nonpayable",
      "type": "function"
    },
    {
      "inputs": [],
      "name": "studentRegistry",
      "outputs": [
        {
          "internalType": "contract StudentRegistry",
          "name": "",
          "type": "address"
        }
      ],
      "stateMutability": "view",
      "type": "function"
    },
    {
      "inputs": [
        {
          "internalType": "uint256",
          "name": "",
          "type": "uint256"
        },
        {
          "internalType": "address",
          "name": "",
          "type": "address"
        },
        {
          "internalType": "address",
          "name": "",
          "type": "address"
        }
      ],
      "name": "studentTotalVotes",
      "outputs": [
        {
          "internalType": "uint256",
          "name": "",
          "type": "uint256"
        }
      ],
      "stateMutability": "view",
      "type": "function"
    },
    {
      "inputs": [
        {
          "internalType": "address",
          "name": "newOwner",
          "type": "address"
        }
      ],
      "name": "transferOwnership",
      "outputs": [],
      "stateMutability": "nonpayable",
      "type": "function"
    },
    {
      "inputs": [
        {
          "internalType": "uint256",
          "name": "",
          "type": "uint256"
        },
        {
          "internalType": "address",
          "name": "",
          "type": "address"
        }
      ],
      "name": "vaultTotalVotes",
      "outputs": [
        {
          "internalType": "uint256",
          "name": "",
          "type": "uint256"
        }
      ],
      "stateMutability": "view",
      "type": "function"
    },
    {
      "inputs": [
        {
          "internalType": "uint256",
          "name": "",
          "type": "uint256"
        },
        {
          "internalType": "address",
          "name": "",
          "type": "address"
        },
        {
          "internalType": "address",
          "name": "",
          "type": "address"
        },
        {
          "internalType": "address",
          "name": "",
          "type": "address"
        }
      ],
      "name": "votes",
      "outputs": [
        {
          "internalType": "uint256",
          "name": "",
          "type": "uint256"
        }
      ],
      "stateMutability": "view",
      "type": "function"
    }
  ],
  "transactionHash": "0x4ddc4d4ddd39f676381351c09a7f52205ec16fabb171314a230c63d4ff771b61",
  "args": [
    "0xf6a5E6e0D9077dD34A7EB1F35BB724f278725c36"
  ],
  "numDeployments": 1,
  "solcInputHash": "bf361e05fc9a204f60cff3999de3d4d8",
  "bytecode": "0x60806040523480156200001157600080fd5b506040516200236b3803806200236b833981016040819052620000349162000270565b33806200005c57604051631e4fbdf760e01b8152600060048201526024015b60405180910390fd5b6200006781620000ec565b506001600160a01b038116620000c05760405162461bcd60e51b815260206004820152601860248201527f496e76616c69642073747564656e742072656769737472790000000000000000604482015260640162000053565b600880546001600160a01b0319166001600160a01b038316179055620000e56200013c565b50620002ca565b600080546001600160a01b038381166001600160a01b0319831681178455604051919092169283917f8be0079c531659141344cd1fd0a4f28419497f9722a3daafe3b4186f6b6457e09190a35050565b4260006200014e62278d0083620002a2565b604080516080810182526005805482526020808301878152838501868152600060608601818152600480546001810182559281905296517f8a35acfbc15ff81a39ae7d344fd709f28e8600b4aa8c65c6b64bfe7fe36bd19b929097029182019690965591517f8a35acfbc15ff81a39ae7d344fd709f28e8600b4aa8c65c6b64bfe7fe36bd19c830155517f8a35acfbc15ff81a39ae7d344fd709f28e8600b4aa8c65c6b64bfe7fe36bd19d82015592517f8a35acfbc15ff81a39ae7d344fd709f28e8600b4aa8c65c6b64bfe7fe36bd19e909301805460ff1916931515939093179092555482518681529182018490529293507fa7124738b4fefbd0f90dc8cef518f7462ef69a3ceaa4bd16657cd2e73db2bf8d910160405180910390a25050565b6000602082840312156200028357600080fd5b81516001600160a01b03811681146200029b57600080fd5b9392505050565b80820180821115620002c457634e487b7160e01b600052601160045260246000fd5b92915050565b61209180620002da6000396000f3fe608060405234801561001057600080fd5b50600436106101575760003560e01c8063b15a5f92116100c3578063dfcb36681161007c578063dfcb366814610373578063e1a4521814610386578063eacdc5ff1461038f578063ebb219f514610398578063f2fde38b146103c9578063f46ac8ce146103dc57600080fd5b8063b15a5f9214610274578063b97dd9e214610287578063bd3b4060146102c4578063c6b61e4c146102d9578063cf3025331461030e578063d66439811461033957600080fd5b80638933ab6d116101155780638933ab6d146101d85780638da5cb5b146101e157806392c16fb5146102065780639ff18a1814610219578063a70b9f0c1461022c578063ab2517931461023657600080fd5b80621504641461015c578063105a88e3146101785780632387d32c146101ab57806367ccd1cb146101b3578063715018a6146101c857806382ae9ef7146101d0575b600080fd5b610165611d4c81565b6040519081526020015b60405180910390f35b61019b610186366004611bd2565b60066020526000908152604090205460ff1681565b604051901515815260200161016f565b600454610165565b6101c66101c1366004611bd2565b6103e5565b005b6101c6610535565b6101c6610549565b6101656103e881565b6000546001600160a01b03165b6040516001600160a01b03909116815260200161016f565b6008546101ee906001600160a01b031681565b6101ee610227366004611bf6565b6106b4565b61016562278d0081565b610165610244366004611c0f565b60009283526002602090815260408085206001600160a01b03948516865282528085209290931684525290205490565b6101c6610282366004611c51565b6106de565b61028f610ae4565b60405161016f919081518152602080830151908201526040808301519082015260609182015115159181019190915260800190565b6102cc610b71565b60405161016f9190611c81565b6102ec6102e7366004611bf6565b610bd3565b604080519485526020850193909352918301521515606082015260800161016f565b61016561031c366004611c51565b600360209081526000928352604080842090915290825290205481565b610165610347366004611cce565b600160209081526000948552604080862082529385528385208152918452828420909152825290205481565b6101c6610381366004611d6d565b610c10565b61016561271081565b61016560055481565b6101656103a6366004611c0f565b600260209081526000938452604080852082529284528284209052825290205481565b6101c66103d7366004611bd2565b611233565b6101656105dc81565b6103ed611271565b6001600160a01b03811660009081526006602052604090205460ff161561045b5760405162461bcd60e51b815260206004820152601860248201527f5661756c7420616c72656164792072656769737465726564000000000000000060448201526064015b60405180910390fd5b6001600160a01b0381166104a95760405162461bcd60e51b8152602060048201526015602482015274496e76616c6964207661756c74206164647265737360581b6044820152606401610452565b6001600160a01b038116600081815260066020526040808220805460ff1916600190811790915560078054918201815583527fa66cc928b5edb82af9bd49922954155ab7b0942694bea4ce44661d9a8736c6880180546001600160a01b03191684179055517f8e0930709528779f1112249aac8fcca15dbb9c595db31092c7bc7f954b5679339190a250565b61053d611271565b610547600061129e565b565b610551611271565b60046005548154811061056657610566611df0565b600091825260209091206003600490920201015460ff16156105ca5760405162461bcd60e51b815260206004820152601760248201527f45706f636820616c72656164792066696e616c697a65640000000000000000006044820152606401610452565b6004600554815481106105df576105df611df0565b9060005260206000209060040201600201544210156106325760405162461bcd60e51b815260206004820152600f60248201526e115c1bd8da081b9bdd08195b991959608a1b6044820152606401610452565b600160046005548154811061064957610649611df0565b60009182526020822060049190910201600301805460ff19169215159290921790915560055460405190917f8fc0db93d562284b2140b5ba84181e6d8649504e729013e6a8c704ffb08d04b991a2600580549060006106a783611e1c565b91905055506105476112ee565b600781815481106106c457600080fd5b6000918252602090912001546001600160a01b0316905081565b6106e6611271565b600482815481106106f9576106f9611df0565b600091825260209091206003600490920201015460ff166107525760405162461bcd60e51b8152602060048201526013602482015272115c1bd8da081b9bdd08199a5b985b1a5e9959606a1b6044820152606401610452565b6001600160a01b03811660009081526006602052604090205460ff166107b15760405162461bcd60e51b815260206004820152601460248201527315985d5b1d081b9bdd081c9959da5cdd195c995960621b6044820152606401610452565b60008190506000816001600160a01b0316632843594f6040518163ffffffff1660e01b8152600401602060405180830381865afa1580156107f6573d6000803e3d6000fd5b505050506040513d601f19601f8201168201806040525081019061081a9190611e35565b9050600081116108615760405162461bcd60e51b81526020600482015260126024820152714e6f207969656c6420617661696c61626c6560701b6044820152606401610452565b60006127106108726103e884611e4e565b61087c9190611e6b565b9050600061271061088f6105dc85611e4e565b6108999190611e6b565b905060006127106108ac611d4c86611e4e565b6108b69190611e6b565b6040516340bd2e2360e01b8152600481018690529091506001600160a01b038616906340bd2e2390602401600060405180830381600087803b1580156108fb57600080fd5b505af115801561090f573d6000803e3d6000fd5b505050506000856001600160a01b03166338d52e0f6040518163ffffffff1660e01b8152600401602060405180830381865afa158015610953573d6000803e3d6000fd5b505050506040513d601f19601f820116820180604052508101906109779190611e9d565b90506000866001600160a01b031663a6a1858f6040518163ffffffff1660e01b8152600401602060405180830381865afa1580156109b9573d6000803e3d6000fd5b505050506040513d601f19601f820116820180604052508101906109dd9190611e9d565b90506001600160a01b038116158015906109f75750600085115b15610a715760405163a9059cbb60e01b81526001600160a01b0382811660048301526024820187905283169063a9059cbb906044016020604051808303816000875af1158015610a4b573d6000803e3d6000fd5b505050506040513d601f19601f82011682018060405250810190610a6f9190611eba565b505b8315610a8257610a82888589611420565b8215610a9357610a9389898561172a565b60408051878152602081018590526001600160a01b038a16918b917fc47ce953cf0e0fd061689cc913d628f9fa71a9156bf3d9bfc23bccd0c3c8fdb1910160405180910390a3505050505050505050565b610b1160405180608001604052806000815260200160008152602001600081526020016000151581525090565b600460055481548110610b2657610b26611df0565b60009182526020918290206040805160808101825260049093029091018054835260018101549383019390935260028301549082015260039091015460ff1615156060820152919050565b60606007805480602002602001604051908101604052809291908181526020018280548015610bc957602002820191906000526020600020905b81546001600160a01b03168152600190910190602001808311610bab575b5050505050905090565b60048181548110610be357600080fd5b60009182526020909120600490910201805460018201546002830154600390930154919350919060ff1684565b6001600160a01b03851660009081526006602052604090205460ff16610c6f5760405162461bcd60e51b815260206004820152601460248201527315985d5b1d081b9bdd081c9959da5cdd195c995960621b6044820152606401610452565b828114610cb65760405162461bcd60e51b8152602060048201526015602482015274082e4e4c2f240d8cadccee8d040dad2e6dac2e8c6d605b1b6044820152606401610452565b82610d115760405162461bcd60e51b815260206004820152602560248201527f4d75737420616c6c6f6361746520746f206174206c65617374206f6e652073746044820152641d59195b9d60da1b6064820152608401610452565b600460055481548110610d2657610d26611df0565b600091825260209091206003600490920201015460ff1615610d7f5760405162461bcd60e51b8152602060048201526012602482015271115c1bd8da081a5cc8199a5b985b1a5e995960721b6044820152606401610452565b6040516370a0823160e01b815233600482015285906000906001600160a01b038316906370a0823190602401602060405180830381865afa158015610dc8573d6000803e3d6000fd5b505050506040513d601f19601f82011682018060405250810190610dec9190611e35565b905060008111610e335760405162461bcd60e51b8152602060048201526012602482015271139bc81cda185c995cc81a5b881d985d5b1d60721b6044820152606401610452565b6000805b84811015610e7757858582818110610e5157610e51611df0565b9050602002013582610e639190611edc565b915080610e6f81611e1c565b915050610e37565b50818114610ec75760405162461bcd60e51b815260206004820152601c60248201527f566f746520746f74616c206d75737420657175616c20736861726573000000006044820152606401610452565b610ed460055489336119c6565b60005b868110156111a0576008546001600160a01b031663095f7b89898984818110610f0257610f02611df0565b9050602002016020810190610f179190611bd2565b6040516001600160e01b031960e084901b1681526001600160a01b039091166004820152602401602060405180830381865afa158015610f5b573d6000803e3d6000fd5b505050506040513d601f19601f82011682018060405250810190610f7f9190611eba565b610fc05760405162461bcd60e51b815260206004820152601260248201527153747564656e74206e6f742061637469766560701b6044820152606401610452565b6000868683818110610fd457610fd4611df0565b90506020020135116110285760405162461bcd60e51b815260206004820152601c60248201527f566f746520616d6f756e74206d75737420626520706f736974697665000000006044820152606401610452565b85858281811061103a5761103a611df0565b9050602002013560016000600554815260200190815260200160002060008b6001600160a01b03166001600160a01b031681526020019081526020016000206000336001600160a01b03166001600160a01b0316815260200190815260200160002060008a8a858181106110b0576110b0611df0565b90506020020160208101906110c59190611bd2565b6001600160a01b031681526020810191909152604001600020558585828181106110f1576110f1611df0565b9050602002013560026000600554815260200190815260200160002060008b6001600160a01b03166001600160a01b0316815260200190815260200160002060008a8a8581811061114457611144611df0565b90506020020160208101906111599190611bd2565b6001600160a01b03166001600160a01b0316815260200190815260200160002060008282546111889190611edc565b9091555081905061119881611e1c565b915050610ed7565b5060055460009081526003602090815260408083206001600160a01b038c168452909152812080548492906111d6908490611edc565b909155505060055460405133916001600160a01b038b16917f2056e20cfebd7901454610aadd3bc1a32ded879898a5b911030b260c71e838a190611221908c908c908c908c90611eef565b60405180910390a45050505050505050565b61123b611271565b6001600160a01b03811661126557604051631e4fbdf760e01b815260006004820152602401610452565b61126e8161129e565b50565b6000546001600160a01b031633146105475760405163118cdaa760e01b8152336004820152602401610452565b600080546001600160a01b038381166001600160a01b0319831681178455604051919092169283917f8be0079c531659141344cd1fd0a4f28419497f9722a3daafe3b4186f6b6457e09190a35050565b4260006112fe62278d0083611edc565b604080516080810182526005805482526020808301878152838501868152600060608601818152600480546001810182559281905296517f8a35acfbc15ff81a39ae7d344fd709f28e8600b4aa8c65c6b64bfe7fe36bd19b929097029182019690965591517f8a35acfbc15ff81a39ae7d344fd709f28e8600b4aa8c65c6b64bfe7fe36bd19c830155517f8a35acfbc15ff81a39ae7d344fd709f28e8600b4aa8c65c6b64bfe7fe36bd19d82015592517f8a35acfbc15ff81a39ae7d344fd709f28e8600b4aa8c65c6b64bfe7fe36bd19e909301805460ff1916931515939093179092555482518681529182018490529293507fa7124738b4fefbd0f90dc8cef518f7462ef69a3ceaa4bd16657cd2e73db2bf8d910160405180910390a25050565b6000816001600160a01b03166338d52e0f6040518163ffffffff1660e01b8152600401602060405180830381865afa158015611460573d6000803e3d6000fd5b505050506040513d601f19601f820116820180604052508101906114849190611e9d565b90506000826001600160a01b0316635aa68ac06040518163ffffffff1660e01b8152600401600060405180830381865afa1580156114c6573d6000803e3d6000fd5b505050506040513d6000823e601f3d908101601f191682016040526114ee9190810190611f83565b90506000836001600160a01b03166318160ddd6040518163ffffffff1660e01b8152600401602060405180830381865afa158015611530573d6000803e3d6000fd5b505050506040513d601f19601f820116820180604052508101906115549190611e35565b905060005b825181101561172157600083828151811061157657611576611df0565b60200260200101519050856001600160a01b031663a6a1858f6040518163ffffffff1660e01b8152600401602060405180830381865afa1580156115be573d6000803e3d6000fd5b505050506040513d601f19601f820116820180604052508101906115e29190611e9d565b6001600160a01b0316816001600160a01b031603611600575061170f565b6040516370a0823160e01b81526001600160a01b038281166004830152600091908816906370a0823190602401602060405180830381865afa15801561164a573d6000803e3d6000fd5b505050506040513d601f19601f8201168201806040525081019061166e9190611e35565b9050801561170c57600084611683838b611e4e565b61168d9190611e6b565b9050801561170a5760405163a9059cbb60e01b81526001600160a01b0384811660048301526024820183905288169063a9059cbb906044016020604051808303816000875af11580156116e4573d6000803e3d6000fd5b505050506040513d601f19601f820116820180604052508101906117089190611eba565b505b505b50505b8061171981611e1c565b915050611559565b50505050505050565b60008290506000816001600160a01b03166338d52e0f6040518163ffffffff1660e01b8152600401602060405180830381865afa15801561176f573d6000803e3d6000fd5b505050506040513d601f19601f820116820180604052508101906117939190611e9d565b90506000600860009054906101000a90046001600160a01b03166001600160a01b0316637be262776040518163ffffffff1660e01b8152600401600060405180830381865afa1580156117ea573d6000803e3d6000fd5b505050506040513d6000823e601f3d908101601f191682016040526118129190810190611f83565b60008781526003602090815260408083206001600160a01b038a1684529091528120549192508190036118485750505050505050565b60005b82518110156119bc57600083828151811061186857611868611df0565b60209081029190910181015160008b81526002835260408082206001600160a01b03808e1684529085528183209084168352909352919091205490915080156119a7576000846118b8838b611e4e565b6118c29190611e6b565b905080156119a55760405163a9059cbb60e01b81526001600160a01b0384811660048301526024820183905288169063a9059cbb906044016020604051808303816000875af1158015611919573d6000803e3d6000fd5b505050506040513d601f19601f8201168201806040525081019061193d9190611eba565b50600854604051630f7a49db60e31b81526001600160a01b0385811660048301526024820184905290911690637bd24ed890604401600060405180830381600087803b15801561198c57600080fd5b505af11580156119a0573d6000803e3d6000fd5b505050505b505b505080806119b490611e1c565b91505061184b565b5050505050505050565b6008546040805163e9e3092760e01b815290516000926001600160a01b03169163e9e3092791600480830192869291908290030181865afa158015611a0f573d6000803e3d6000fd5b505050506040513d6000823e601f3d908101601f19168201604052611a379190810190611f83565b905060005b8151811015611bb65760008581526001602090815260408083206001600160a01b0380891685529083528184209087168452909152812083518290859085908110611a8957611a89611df0565b60200260200101516001600160a01b03166001600160a01b031681526020019081526020016000205490506000811115611ba35760008681526002602090815260408083206001600160a01b038916845290915281208451839290869086908110611af657611af6611df0565b60200260200101516001600160a01b03166001600160a01b031681526020019081526020016000206000828254611b2d9190612048565b909155505060008681526001602090815260408083206001600160a01b03808a1685529083528184209088168452909152812084518290869086908110611b7657611b76611df0565b60200260200101516001600160a01b03166001600160a01b03168152602001908152602001600020819055505b5080611bae81611e1c565b915050611a3c565b5050505050565b6001600160a01b038116811461126e57600080fd5b600060208284031215611be457600080fd5b8135611bef81611bbd565b9392505050565b600060208284031215611c0857600080fd5b5035919050565b600080600060608486031215611c2457600080fd5b833592506020840135611c3681611bbd565b91506040840135611c4681611bbd565b809150509250925092565b60008060408385031215611c6457600080fd5b823591506020830135611c7681611bbd565b809150509250929050565b6020808252825182820181905260009190848201906040850190845b81811015611cc25783516001600160a01b031683529284019291840191600101611c9d565b50909695505050505050565b60008060008060808587031215611ce457600080fd5b843593506020850135611cf681611bbd565b92506040850135611d0681611bbd565b91506060850135611d1681611bbd565b939692955090935050565b60008083601f840112611d3357600080fd5b50813567ffffffffffffffff811115611d4b57600080fd5b6020830191508360208260051b8501011115611d6657600080fd5b9250929050565b600080600080600060608688031215611d8557600080fd5b8535611d9081611bbd565b9450602086013567ffffffffffffffff80821115611dad57600080fd5b611db989838a01611d21565b90965094506040880135915080821115611dd257600080fd5b50611ddf88828901611d21565b969995985093965092949392505050565b634e487b7160e01b600052603260045260246000fd5b634e487b7160e01b600052601160045260246000fd5b600060018201611e2e57611e2e611e06565b5060010190565b600060208284031215611e4757600080fd5b5051919050565b8082028115828204841417611e6557611e65611e06565b92915050565b600082611e8857634e487b7160e01b600052601260045260246000fd5b500490565b8051611e9881611bbd565b919050565b600060208284031215611eaf57600080fd5b8151611bef81611bbd565b600060208284031215611ecc57600080fd5b81518015158114611bef57600080fd5b80820180821115611e6557611e65611e06565b6040808252810184905260008560608301825b87811015611f32578235611f1581611bbd565b6001600160a01b0316825260209283019290910190600101611f02565b5083810360208501528481526001600160fb1b03851115611f5257600080fd5b8460051b915081866020830137016020019695505050505050565b634e487b7160e01b600052604160045260246000fd5b60006020808385031215611f9657600080fd5b825167ffffffffffffffff80821115611fae57600080fd5b818501915085601f830112611fc257600080fd5b815181811115611fd457611fd4611f6d565b8060051b604051601f19603f83011681018181108582111715611ff957611ff9611f6d565b60405291825284820192508381018501918883111561201757600080fd5b938501935b8285101561203c5761202d85611e8d565b8452938501939285019261201c565b98975050505050505050565b81810381811115611e6557611e65611e0656fea264697066735822122079602ad3a41a9074fefc0ffe14d4b0ce45c58e122d21e2c956794fbd83d0853a64736f6c63430008140033",
  "devdoc": {
    "details": "Handles 30-day epochs, vote allocation, and 10/15/75 yield split",
    "errors": {
      "OwnableInvalidOwner(address)": [
        {
          "details": "The owner is not a valid owner account. (eg. `address(0)`)"
        }
      ],
      "OwnableUnauthorizedAccount(address)": [
        {
          "details": "The caller account is not authorized to perform an operation."
        }
      ]
    },
    "kind": "dev",
    "methods": {
      "allocateVotes(address,address[],uint256[])": {
        "params": {
          "students": "Array of student addresses",
          "vault": "Address of vault",
          "voteAmounts": "Array of vote amounts (must match user's shares)"
        }
      },
      "constructor": {
        "params": {
          "_studentRegistry": "Address of StudentRegistry contract"
        }
      },
      "distributeYield(uint256,address)": {
        "params": {
          "epochId": "Epoch to distribute for",
          "vault": "Vault to distribute from"
        }
      },
      "getCurrentEpoch()": {
        "returns": {
          "_0": "Epoch struct for current epoch"
        }
      },
      "getEpochCount()": {
        "returns": {
          "_0": "Number of epochs created"
        }
      },
      "getRegisteredVaults()": {
        "returns": {
          "_0": "Array of vault addresses"
        }
      },
      "getStudentVotes(uint256,address,address)": {
        "params": {
          "epochId": "Epoch ID",
          "student": "Student address",
          "vault": "Vault address"
        },
        "returns": {
          "_0": "Total votes"
        }
      },
      "owner()": {
        "details": "Returns the address of the current owner."
      },
      "registerVault(address)": {
        "params": {
          "vault": "Address of EndaomentVault"
        }
      },
      "renounceOwnership()": {
        "details": "Leaves the contract without owner. It will not be possible to call `onlyOwner` functions. Can only be called by the current owner. NOTE: Renouncing ownership will leave the contract without an owner, thereby disabling any functionality that is only available to the owner."
      },
      "transferOwnership(address)": {
        "details": "Transfers ownership of the contract to a new account (`newOwner`). Can only be called by the current owner."
      }
    },
    "title": "AllocationManager",
    "version": 1
  },
  "userdoc": {
    "kind": "user",
    "methods": {
      "allocateVotes(address,address[],uint256[])": {
        "notice": "Allocate votes to students for current epoch"
      },
      "constructor": {
        "notice": "Initialize AllocationManager"
      },
      "distributeYield(uint256,address)": {
        "notice": "Distribute yield for a vault in a specific epoch"
      },
      "finalizeEpoch()": {
        "notice": "Finalize current epoch and create next one"
      },
      "getCurrentEpoch()": {
        "notice": "Get current epoch info"
      },
      "getEpochCount()": {
        "notice": "Get total number of epochs"
      },
      "getRegisteredVaults()": {
        "notice": "Get all registered vaults"
      },
      "getStudentVotes(uint256,address,address)": {
        "notice": "Get total votes for a student in a vault for an epoch"
      },
      "registerVault(address)": {
        "notice": "Register a vault for allocation management"
      }
    },
    "notice": "Manages epochs, voting, and yield distribution for Endaoment vaults",
    "version": 1
  },
  "storageLayout": {
    "storage": [
      {
        "astId": 8,
        "contract": "contracts/AllocationManager.sol:AllocationManager",
        "label": "_owner",
        "offset": 0,
        "slot": "0",
        "type": "t_address"
      },
      {
        "astId": 3449,
        "contract": "contracts/AllocationManager.sol:AllocationManager",
        "label": "votes",
        "offset": 0,
        "slot": "1",
        "type": "t_mapping(t_uint256,t_mapping(t_address,t_mapping(t_address,t_mapping(t_address,t_uint256))))"
      },
      {
        "astId": 3457,
        "contract": "contracts/AllocationManager.sol:AllocationManager",
        "label": "studentTotalVotes",
        "offset": 0,
        "slot": "2",
        "type": "t_mapping(t_uint256,t_mapping(t_address,t_mapping(t_address,t_uint256)))"
      },
      {
        "astId": 3463,
        "contract": "contracts/AllocationManager.sol:AllocationManager",
        "label": "vaultTotalVotes",
        "offset": 0,
        "slot": "3",
        "type": "t_mapping(t_uint256,t_mapping(t_address,t_uint256))"
      },
      {
        "astId": 3467,
        "contract": "contracts/AllocationManager.sol:AllocationManager",
        "label": "epochs",
        "offset": 0,
        "slot": "4",
        "type": "t_array(t_struct(Epoch)3439_storage)dyn_storage"
      },
      {
        "astId": 3469,
        "contract": "contracts/AllocationManager.sol:AllocationManager",
        "label": "currentEpochId",
        "offset": 0,
        "slot": "5",
        "type": "t_uint256"
      },
      {
        "astId": 3473,
        "contract": "contracts/AllocationManager.sol:AllocationManager",
        "label": "isVaultRegistered",
        "offset": 0,
        "slot": "6",
        "type": "t_mapping(t_address,t_bool)"
      },
      {
        "astId": 3476,
        "contract": "contracts/AllocationManager.sol:AllocationManager",
        "label": "registeredVaults",
        "offset": 0,
        "slot": "7",
        "type": "t_array(t_address)dyn_storage"
      },
      {
        "astId": 3479,
        "contract": "contracts/AllocationManager.sol:AllocationManager",
        "label": "studentRegistry",
        "offset": 0,
        "slot": "8",
        "type": "t_contract(StudentRegistry)5479"
      }
    ],
    "types": {
      "t_address": {
        "encoding": "inplace",
        "label": "address",
        "numberOfBytes": "20"
      },
      "t_array(t_address)dyn_storage": {
        "base": "t_address",
        "encoding": "dynamic_array",
        "label": "address[]",
        "numberOfBytes": "32"
      },
      "t_array(t_struct(Epoch)3439_storage)dyn_storage": {
        "base": "t_struct(Epoch)3439_storage",
        "encoding": "dynamic_array",
        "label": "struct AllocationManager.Epoch[]",
        "numberOfBytes": "32"
      },
      "t_bool": {
        "encoding": "inplace",
        "label": "bool",
        "numberOfBytes": "1"
      },
      "t_contract(StudentRegistry)5479": {
        "encoding": "inplace",
        "label": "contract StudentRegistry",
        "numberOfBytes": "20"
      },
      "t_mapping(t_address,t_bool)": {
        "encoding": "mapping",
        "key": "t_address",
        "label": "mapping(address => bool)",
        "numberOfBytes": "32",
        "value": "t_bool"
      },
      "t_mapping(t_address,t_mapping(t_address,t_mapping(t_address,t_uint256)))": {
        "encoding": "mapping",
        "key": "t_address",
        "label": "mapping(address => mapping(address => mapping(address => uint256)))",
        "numberOfBytes": "32",
        "value": "t_mapping(t_address,t_mapping(t_address,t_uint256))"
      },
      "t_mapping(t_address,t_mapping(t_address,t_uint256))": {
        "encoding": "mapping",
        "key": "t_address",
        "label": "mapping(address => mapping(address => uint256))",
        "numberOfBytes": "32",
        "value": "t_mapping(t_address,t_uint256)"
      },
      "t_mapping(t_address,t_uint256)": {
        "encoding": "mapping",
        "key": "t_address",
        "label": "mapping(address => uint256)",
        "numberOfBytes": "32",
        "value": "t_uint256"
      },
      "t_mapping(t_uint256,t_mapping(t_address,t_mapping(t_address,t_mapping(t_address,t_uint256))))": {
        "encoding": "mapping",
        "key": "t_uint256",
        "label": "mapping(uint256 => mapping(address => mapping(address => mapping(address => uint256))))",
        "numberOfBytes": "32",
        "value": "t_mapping(t_address,t_mapping(t_address,t_mapping(t_address,t_uint256)))"
      },
      "t_mapping(t_uint256,t_mapping(t_address,t_mapping(t_address,t_uint256)))": {
        "encoding": "mapping",
        "key": "t_uint256",
        "label": "mapping(uint256 => mapping(address => mapping(address => uint256)))",
        "numberOfBytes": "32",
        "value": "t_mapping(t_address,t_mapping(t_address,t_uint256))"
      },
      "t_mapping(t_uint256,t_mapping(t_address,t_uint256))": {
        "encoding": "mapping",
        "key": "t_uint256",
        "label": "mapping(uint256 => mapping(address => uint256))",
        "numberOfBytes": "32",
        "value": "t_mapping(t_address,t_uint256)"
      },
      "t_struct(Epoch)3439_storage": {
        "encoding": "inplace",
        "label": "struct AllocationManager.Epoch",
        "members": [
          {
            "astId": 3432,
            "contract": "contracts/AllocationManager.sol:AllocationManager",
            "label": "id",
            "offset": 0,
            "slot": "0",
            "type": "t_uint256"
          },
          {
            "astId": 3434,
            "contract": "contracts/AllocationManager.sol:AllocationManager",
            "label": "startTime",
            "offset": 0,
            "slot": "1",
            "type": "t_uint256"
          },
          {
            "astId": 3436,
            "contract": "contracts/AllocationManager.sol:AllocationManager",
            "label": "endTime",
            "offset": 0,
            "slot": "2",
            "type": "t_uint256"
          },
          {
            "astId": 3438,
            "contract": "contracts/AllocationManager.sol:AllocationManager",
            "label": "isFinalized",
            "offset": 0,
            "slot": "3",
            "type": "t_bool"
          }
        ],
        "numberOfBytes": "128"
      },
      "t_uint256": {
        "encoding": "inplace",
        "label": "uint256",
        "numberOfBytes": "32"
      }
    }
  }
}