{
  "address": "0x253AEc843242a5fbB44Ed53E89e08Eafc15bDC09",
  "abi": [
    {
      "inputs": [
        {
          "internalType": "contract IERC20",
          "name": "asset_",
          "type": "address"
        },
        {
          "internalType": "string",
          "name": "name_",
          "type": "string"
        },
        {
          "internalType": "string",
          "name": "symbol_",
          "type": "string"
        },
        {
          "internalType": "address",
          "name": "whale_",
          "type": "address"
        }
      ],
      "stateMutability": "nonpayable",
      "type": "constructor"
    },
    {
      "inputs": [
        {
          "internalType": "address",
          "name": "target",
          "type": "address"
        }
      ],
      "name": "AddressEmptyCode",
      "type": "error"
    },
    {
      "inputs": [
        {
          "internalType": "address",
          "name": "account",
          "type": "address"
        }
      ],
      "name": "AddressInsufficientBalance",
      "type": "error"
    },
    {
      "inputs": [
        {
          "internalType": "address",
          "name": "spender",
          "type": "address"
        },
        {
          "internalType": "uint256",
          "name": "allowance",
          "type": "uint256"
        },
        {
          "internalType": "uint256",
          "name": "needed",
          "type": "uint256"
        }
      ],
      "name": "ERC20InsufficientAllowance",
      "type": "error"
    },
    {
      "inputs": [
        {
          "internalType": "address",
          "name": "sender",
          "type": "address"
        },
        {
          "internalType": "uint256",
          "name": "balance",
          "type": "uint256"
        },
        {
          "internalType": "uint256",
          "name": "needed",
          "type": "uint256"
        }
      ],
      "name": "ERC20InsufficientBalance",
      "type": "error"
    },
    {
      "inputs": [
        {
          "internalType": "address",
          "name": "approver",
          "type": "address"
        }
      ],
      "name": "ERC20InvalidApprover",
      "type": "error"
    },
    {
      "inputs": [
        {
          "internalType": "address",
          "name": "receiver",
          "type": "address"
        }
      ],
      "name": "ERC20InvalidReceiver",
      "type": "error"
    },
    {
      "inputs": [
        {
          "internalType": "address",
          "name": "sender",
          "type": "address"
        }
      ],
      "name": "ERC20InvalidSender",
      "type": "error"
    },
    {
      "inputs": [
        {
          "internalType": "address",
          "name": "spender",
          "type": "address"
        }
      ],
      "name": "ERC20InvalidSpender",
      "type": "error"
    },
    {
      "inputs": [
        {
          "internalType": "address",
          "name": "receiver",
          "type": "address"
        },
        {
          "internalType": "uint256",
          "name": "assets",
          "type": "uint256"
        },
        {
          "internalType": "uint256",
          "name": "max",
          "type": "uint256"
        }
      ],
      "name": "ERC4626ExceededMaxDeposit",
      "type": "error"
    },
    {
      "inputs": [
        {
          "internalType": "address",
          "name": "receiver",
          "type": "address"
        },
        {
          "internalType": "uint256",
          "name": "shares",
          "type": "uint256"
        },
        {
          "internalType": "uint256",
          "name": "max",
          "type": "uint256"
        }
      ],
      "name": "ERC4626ExceededMaxMint",
      "type": "error"
    },
    {
      "inputs": [
        {
          "internalType": "address",
          "name": "owner",
          "type": "address"
        },
        {
          "internalType": "uint256",
          "name": "shares",
          "type": "uint256"
        },
        {
          "internalType": "uint256",
          "name": "max",
          "type": "uint256"
        }
      ],
      "name": "ERC4626ExceededMaxRedeem",
      "type": "error"
    },
    {
      "inputs": [
        {
          "internalType": "address",
          "name": "owner",
          "type": "address"
        },
        {
          "internalType": "uint256",
          "name": "assets",
          "type": "uint256"
        },
        {
          "internalType": "uint256",
          "name": "max",
          "type": "uint256"
        }
      ],
      "name": "ERC4626ExceededMaxWithdraw",
      "type": "error"
    },
    {
      "inputs": [],
      "name": "FailedInnerCall",
      "type": "error"
    },
    {
      "inputs": [],
      "name": "MathOverflowedMulDiv",
      "type": "error"
    },
    {
      "inputs": [
        {
          "internalType": "address",
          "name": "owner",
          "type": "address"
        }
      ],
      "name": "OwnableInvalidOwner",
      "type": "error"
    },
    {
      "inputs": [
        {
          "internalType": "address",
          "name": "account",
          "type": "address"
        }
      ],
      "name": "OwnableUnauthorizedAccount",
      "type": "error"
    },
    {
      "inputs": [
        {
          "internalType": "address",
          "name": "token",
          "type": "address"
        }
      ],
      "name": "SafeERC20FailedOperation",
      "type": "error"
    },
    {
      "anonymous": false,
      "inputs": [
        {
          "indexed": true,
          "internalType": "address",
          "name": "owner",
          "type": "address"
        },
        {
          "indexed": true,
          "internalType": "address",
          "name": "spender",
          "type": "address"
        },
        {
          "indexed": false,
          "internalType": "uint256",
          "name": "value",
          "type": "uint256"
        }
      ],
      "name": "Approval",
      "type": "event"
    },
    {
      "anonymous": false,
      "inputs": [
        {
          "indexed": true,
          "internalType": "address",
          "name": "sender",
          "type": "address"
        },
        {
          "indexed": true,
          "internalType": "address",
          "name": "owner",
          "type": "address"
        },
        {
          "indexed": false,
          "internalType": "uint256",
          "name": "assets",
          "type": "uint256"
        },
        {
          "indexed": false,
          "internalType": "uint256",
          "name": "shares",
          "type": "uint256"
        }
      ],
      "name": "Deposit",
      "type": "event"
    },
    {
      "anonymous": false,
      "inputs": [
        {
          "indexed": true,
          "internalType": "address",
          "name": "previousOwner",
          "type": "address"
        },
        {
          "indexed": true,
          "internalType": "address",
          "name": "newOwner",
          "type": "address"
        }
      ],
      "name": "OwnershipTransferred",
      "type": "event"
    },
    {
      "anonymous": false,
      "inputs": [
        {
          "indexed": true,
          "internalType": "address",
          "name": "participant",
          "type": "address"
        }
      ],
      "name": "ParticipantAdded",
      "type": "event"
    },
    {
      "anonymous": false,
      "inputs": [
        {
          "indexed": true,
          "internalType": "address",
          "name": "from",
          "type": "address"
        },
        {
          "indexed": true,
          "internalType": "address",
          "name": "to",
          "type": "address"
        },
        {
          "indexed": false,
          "internalType": "uint256",
          "name": "value",
          "type": "uint256"
        }
      ],
      "name": "Transfer",
      "type": "event"
    },
    {
      "anonymous": false,
      "inputs": [
        {
          "indexed": true,
          "internalType": "address",
          "name": "sender",
          "type": "address"
        },
        {
          "indexed": true,
          "internalType": "address",
          "name": "receiver",
          "type": "address"
        },
        {
          "indexed": true,
          "internalType": "address",
          "name": "owner",
          "type": "address"
        },
        {
          "indexed": false,
          "internalType": "uint256",
          "name": "assets",
          "type": "uint256"
        },
        {
          "indexed": false,
          "internalType": "uint256",
          "name": "shares",
          "type": "uint256"
        }
      ],
      "name": "Withdraw",
      "type": "event"
    },
    {
      "anonymous": false,
      "inputs": [
        {
          "indexed": false,
          "internalType": "uint256",
          "name": "amount",
          "type": "uint256"
        },
        {
          "indexed": false,
          "internalType": "uint256",
          "name": "timestamp",
          "type": "uint256"
        }
      ],
      "name": "YieldAccrued",
      "type": "event"
    },
    {
      "anonymous": false,
      "inputs": [
        {
          "indexed": false,
          "internalType": "uint256",
          "name": "amount",
          "type": "uint256"
        },
        {
          "indexed": true,
          "internalType": "address",
          "name": "claimedBy",
          "type": "address"
        }
      ],
      "name": "YieldClaimed",
      "type": "event"
    },
    {
      "inputs": [],
      "name": "BPS_DENOMINATOR",
      "outputs": [
        {
          "internalType": "uint256",
          "name": "",
          "type": "uint256"
        }
      ],
      "stateMutability": "view",
      "type": "function"
    },
    {
      "inputs": [],
      "name": "RETAIL_SHARE_BPS",
      "outputs": [
        {
          "internalType": "uint256",
          "name": "",
          "type": "uint256"
        }
      ],
      "stateMutability": "view",
      "type": "function"
    },
    {
      "inputs": [],
      "name": "STUDENT_SHARE_BPS",
      "outputs": [
        {
          "internalType": "uint256",
          "name": "",
          "type": "uint256"
        }
      ],
      "stateMutability": "view",
      "type": "function"
    },
    {
      "inputs": [],
      "name": "WHALE_SHARE_BPS",
      "outputs": [
        {
          "internalType": "uint256",
          "name": "",
          "type": "uint256"
        }
      ],
      "stateMutability": "view",
      "type": "function"
    },
    {
      "inputs": [],
      "name": "accumulatedYield",
      "outputs": [
        {
          "internalType": "uint256",
          "name": "",
          "type": "uint256"
        }
      ],
      "stateMutability": "view",
      "type": "function"
    },
    {
      "inputs": [
        {
          "internalType": "address",
          "name": "owner",
          "type": "address"
        },
        {
          "internalType": "address",
          "name": "spender",
          "type": "address"
        }
      ],
      "name": "allowance",
      "outputs": [
        {
          "internalType": "uint256",
          "name": "",
          "type": "uint256"
        }
      ],
      "stateMutability": "view",
      "type": "function"
    },
    {
      "inputs": [
        {
          "internalType": "address",
          "name": "spender",
          "type": "address"
        },
        {
          "internalType": "uint256",
          "name": "value",
          "type": "uint256"
        }
      ],
      "name": "approve",
      "outputs": [
        {
          "internalType": "bool",
          "name": "",
          "type": "bool"
        }
      ],
      "stateMutability": "nonpayable",
      "type": "function"
    },
    {
      "inputs": [],
      "name": "asset",
      "outputs": [
        {
          "internalType": "address",
          "name": "",
          "type": "address"
        }
      ],
      "stateMutability": "view",
      "type": "function"
    },
    {
      "inputs": [
        {
          "internalType": "address",
          "name": "account",
          "type": "address"
        }
      ],
      "name": "balanceOf",
      "outputs": [
        {
          "internalType": "uint256",
          "name": "",
          "type": "uint256"
        }
      ],
      "stateMutability": "view",
      "type": "function"
    },
    {
      "inputs": [
        {
          "internalType": "uint256",
          "name": "amount",
          "type": "uint256"
        }
      ],
      "name": "claimYield",
      "outputs": [],
      "stateMutability": "nonpayable",
      "type": "function"
    },
    {
      "inputs": [
        {
          "internalType": "uint256",
          "name": "shares",
          "type": "uint256"
        }
      ],
      "name": "convertToAssets",
      "outputs": [
        {
          "internalType": "uint256",
          "name": "",
          "type": "uint256"
        }
      ],
      "stateMutability": "view",
      "type": "function"
    },
    {
      "inputs": [
        {
          "internalType": "uint256",
          "name": "assets",
          "type": "uint256"
        }
      ],
      "name": "convertToShares",
      "outputs": [
        {
          "internalType": "uint256",
          "name": "",
          "type": "uint256"
        }
      ],
      "stateMutability": "view",
      "type": "function"
    },
    {
      "inputs": [],
      "name": "createdAt",
      "outputs": [
        {
          "internalType": "uint256",
          "name": "",
          "type": "uint256"
        }
      ],
      "stateMutability": "view",
      "type": "function"
    },
    {
      "inputs": [],
      "name": "decimals",
      "outputs": [
        {
          "internalType": "uint8",
          "name": "",
          "type": "uint8"
        }
      ],
      "stateMutability": "view",
      "type": "function"
    },
    {
      "inputs": [
        {
          "internalType": "uint256",
          "name": "assets",
          "type": "uint256"
        },
        {
          "internalType": "address",
          "name": "receiver",
          "type": "address"
        }
      ],
      "name": "deposit",
      "outputs": [
        {
          "internalType": "uint256",
          "name": "",
          "type": "uint256"
        }
      ],
      "stateMutability": "nonpayable",
      "type": "function"
    },
    {
      "inputs": [],
      "name": "getAccruedYield",
      "outputs": [
        {
          "internalType": "uint256",
          "name": "",
          "type": "uint256"
        }
      ],
      "stateMutability": "view",
      "type": "function"
    },
    {
      "inputs": [],
      "name": "getAvailableYield",
      "outputs": [
        {
          "internalType": "uint256",
          "name": "",
          "type": "uint256"
        }
      ],
      "stateMutability": "view",
      "type": "function"
    },
    {
      "inputs": [],
      "name": "getParticipantCount",
      "outputs": [
        {
          "internalType": "uint256",
          "name": "",
          "type": "uint256"
        }
      ],
      "stateMutability": "view",
      "type": "function"
    },
    {
      "inputs": [],
      "name": "getParticipants",
      "outputs": [
        {
          "internalType": "address[]",
          "name": "",
          "type": "address[]"
        }
      ],
      "stateMutability": "view",
      "type": "function"
    },
    {
      "inputs": [],
      "name": "getVaultStats",
      "outputs": [
        {
          "internalType": "uint256",
          "name": "totalDeposits",
          "type": "uint256"
        },
        {
          "internalType": "uint256",
          "name": "yieldGenerated",
          "type": "uint256"
        },
        {
          "internalType": "uint256",
          "name": "yieldDistributed",
          "type": "uint256"
        },
        {
          "internalType": "uint256",
          "name": "participantCount",
          "type": "uint256"
        }
      ],
      "stateMutability": "view",
      "type": "function"
    },
    {
      "inputs": [
        {
          "internalType": "address",
          "name": "account",
          "type": "address"
        }
      ],
      "name": "isParticipantAddress",
      "outputs": [
        {
          "internalType": "bool",
          "name": "",
          "type": "bool"
        }
      ],
      "stateMutability": "view",
      "type": "function"
    },
    {
      "inputs": [],
      "name": "lastYieldUpdate",
      "outputs": [
        {
          "internalType": "uint256",
          "name": "",
          "type": "uint256"
        }
      ],
      "stateMutability": "view",
      "type": "function"
    },
    {
      "inputs": [
        {
          "internalType": "address",
          "name": "",
          "type": "address"
        }
      ],
      "name": "maxDeposit",
      "outputs": [
        {
          "internalType": "uint256",
          "name": "",
          "type": "uint256"
        }
      ],
      "stateMutability": "view",
      "type": "function"
    },
    {
      "inputs": [
        {
          "internalType": "address",
          "name": "",
          "type": "address"
        }
      ],
      "name": "maxMint",
      "outputs": [
        {
          "internalType": "uint256",
          "name": "",
          "type": "uint256"
        }
      ],
      "stateMutability": "view",
      "type": "function"
    },
    {
      "inputs": [
        {
          "internalType": "address",
          "name": "owner",
          "type": "address"
        }
      ],
      "name": "maxRedeem",
      "outputs": [
        {
          "internalType": "uint256",
          "name": "",
          "type": "uint256"
        }
      ],
      "stateMutability": "view",
      "type": "function"
    },
    {
      "inputs": [
        {
          "internalType": "address",
          "name": "owner",
          "type": "address"
        }
      ],
      "name": "maxWithdraw",
      "outputs": [
        {
          "internalType": "uint256",
          "name": "",
          "type": "uint256"
        }
      ],
      "stateMutability": "view",
      "type": "function"
    },
    {
      "inputs": [
        {
          "internalType": "uint256",
          "name": "shares",
          "type": "uint256"
        },
        {
          "internalType": "address",
          "name": "receiver",
          "type": "address"
        }
      ],
      "name": "mint",
      "outputs": [
        {
          "internalType": "uint256",
          "name": "",
          "type": "uint256"
        }
      ],
      "stateMutability": "nonpayable",
      "type": "function"
    },
    {
      "inputs": [],
      "name": "name",
      "outputs": [
        {
          "internalType": "string",
          "name": "",
          "type": "string"
        }
      ],
      "stateMutability": "view",
      "type": "function"
    },
    {
      "inputs": [],
      "name": "owner",
      "outputs": [
        {
          "internalType": "address",
          "name": "",
          "type": "address"
        }
      ],
      "stateMutability": "view",
      "type": "function"
    },
    {
      "inputs": [
        {
          "internalType": "uint256",
          "name": "assets",
          "type": "uint256"
        }
      ],
      "name": "previewDeposit",
      "outputs": [
        {
          "internalType": "uint256",
          "name": "",
          "type": "uint256"
        }
      ],
      "stateMutability": "view",
      "type": "function"
    },
    {
      "inputs": [
        {
          "internalType": "uint256",
          "name": "shares",
          "type": "uint256"
        }
      ],
      "name": "previewMint",
      "outputs": [
        {
          "internalType": "uint256",
          "name": "",
          "type": "uint256"
        }
      ],
      "stateMutability": "view",
      "type": "function"
    },
    {
      "inputs": [
        {
          "internalType": "uint256",
          "name": "shares",
          "type": "uint256"
        }
      ],
      "name": "previewRedeem",
      "outputs": [
        {
          "internalType": "uint256",
          "name": "",
          "type": "uint256"
        }
      ],
      "stateMutability": "view",
      "type": "function"
    },
    {
      "inputs": [
        {
          "internalType": "uint256",
          "name": "assets",
          "type": "uint256"
        }
      ],
      "name": "previewWithdraw",
      "outputs": [
        {
          "internalType": "uint256",
          "name": "",
          "type": "uint256"
        }
      ],
      "stateMutability": "view",
      "type": "function"
    },
    {
      "inputs": [
        {
          "internalType": "uint256",
          "name": "shares",
          "type": "uint256"
        },
        {
          "internalType": "address",
          "name": "receiver",
          "type": "address"
        },
        {
          "internalType": "address",
          "name": "owner",
          "type": "address"
        }
      ],
      "name": "redeem",
      "outputs": [
        {
          "internalType": "uint256",
          "name": "",
          "type": "uint256"
        }
      ],
      "stateMutability": "nonpayable",
      "type": "function"
    },
    {
      "inputs": [],
      "name": "renounceOwnership",
      "outputs": [],
      "stateMutability": "nonpayable",
      "type": "function"
    },
    {
      "inputs": [
        {
          "internalType": "uint256",
          "name": "months",
          "type": "uint256"
        }
      ],
      "name": "simulateYield",
      "outputs": [],
      "stateMutability": "nonpayable",
      "type": "function"
    },
    {
      "inputs": [],
      "name": "symbol",
      "outputs": [
        {
          "internalType": "string",
          "name": "",
          "type": "string"
        }
      ],
      "stateMutability": "view",
      "type": "function"
    },
    {
      "inputs": [],
      "name": "totalAssets",
      "outputs": [
        {
          "internalType": "uint256",
          "name": "",
          "type": "uint256"
        }
      ],
      "stateMutability": "view",
      "type": "function"
    },
    {
      "inputs": [],
      "name": "totalSupply",
      "outputs": [
        {
          "internalType": "uint256",
          "name": "",
          "type": "uint256"
        }
      ],
      "stateMutability": "view",
      "type": "function"
    },
    {
      "inputs": [],
      "name": "totalYieldClaimed",
      "outputs": [
        {
          "internalType": "uint256",
          "name": "",
          "type": "uint256"
        }
      ],
      "stateMutability": "view",
      "type": "function"
    },
    {
      "inputs": [
        {
          "internalType": "address",
          "name": "to",
          "type": "address"
        },
        {
          "internalType": "uint256",
          "name": "value",
          "type": "uint256"
        }
      ],
      "name": "transfer",
      "outputs": [
        {
          "internalType": "bool",
          "name": "",
          "type": "bool"
        }
      ],
      "stateMutability": "nonpayable",
      "type": "function"
    },
    {
      "inputs": [
        {
          "internalType": "address",
          "name": "from",
          "type": "address"
        },
        {
          "internalType": "address",
          "name": "to",
          "type": "address"
        },
        {
          "internalType": "uint256",
          "name": "value",
          "type": "uint256"
        }
      ],
      "name": "transferFrom",
      "outputs": [
        {
          "internalType": "bool",
          "name": "",
          "type": "bool"
        }
      ],
      "stateMutability": "nonpayable",
      "type": "function"
    },
    {
      "inputs": [
        {
          "internalType": "address",
          "name": "newOwner",
          "type": "address"
        }
      ],
      "name": "transferOwnership",
      "outputs": [],
      "stateMutability": "nonpayable",
      "type": "function"
    },
    {
      "inputs": [],
      "name": "updateYield",
      "outputs": [],
      "stateMutability": "nonpayable",
      "type": "function"
    },
    {
      "inputs": [],
      "name": "vaultName",
      "outputs": [
        {
          "internalType": "string",
          "name": "",
          "type": "string"
        }
      ],
      "stateMutability": "view",
      "type": "function"
    },
    {
      "inputs": [],
      "name": "whale",
      "outputs": [
        {
          "internalType": "address",
          "name": "",
          "type": "address"
        }
      ],
      "stateMutability": "view",
      "type": "function"
    },
    {
      "inputs": [
        {
          "internalType": "uint256",
          "name": "assets",
          "type": "uint256"
        },
        {
          "internalType": "address",
          "name": "receiver",
          "type": "address"
        },
        {
          "internalType": "address",
          "name": "owner",
          "type": "address"
        }
      ],
      "name": "withdraw",
      "outputs": [
        {
          "internalType": "uint256",
          "name": "",
          "type": "uint256"
        }
      ],
      "stateMutability": "nonpayable",
      "type": "function"
    }
  ],
  "transactionHash": "0xb04888093363d534e867e5ad8f8efd531341d382e12591a566407cd3f10045bc",
  "args": [
    "0xF275FB7aF26F08f5053611DAE56570304C4A22fF",
    "Endaoment Education Vault",
    "EDVAULT",
    "0xcd95569742Ec931BB4879ccC7EAA9f5BD9d2E205"
  ],
  "numDeployments": 1,
  "solcInputHash": "bf361e05fc9a204f60cff3999de3d4d8",
  "bytecode": "0x60c06040523480156200001157600080fd5b506040516200248a3803806200248a83398101604081905262000034916200037d565b338484846003620000468382620004a0565b506004620000558282620004a0565b5050506000806200006c836200016060201b60201c565b91509150816200007e57601262000080565b805b60ff1660a05250506001600160a01b039081166080528116620000be57604051631e4fbdf760e01b8152600060048201526024015b60405180910390fd5b620000c98162000245565b506001600160a01b038116620001225760405162461bcd60e51b815260206004820152601560248201527f496e76616c6964207768616c65206164647265737300000000000000000000006044820152606401620000b5565b600680546001600160a01b0319166001600160a01b03831617905560076200014b8482620004a0565b505042600881905560095550620005a4915050565b60408051600481526024810182526020810180516001600160e01b031663313ce56760e01b17905290516000918291829182916001600160a01b03871691620001a9916200056c565b600060405180830381855afa9150503d8060008114620001e6576040519150601f19603f3d011682016040523d82523d6000602084013e620001eb565b606091505b50915091508180156200020057506020815110155b1562000238576000818060200190518101906200021e91906200058a565b905060ff811162000236576001969095509350505050565b505b5060009485945092505050565b600580546001600160a01b038381166001600160a01b0319831681179093556040519116919082907f8be0079c531659141344cd1fd0a4f28419497f9722a3daafe3b4186f6b6457e090600090a35050565b6001600160a01b0381168114620002ad57600080fd5b50565b634e487b7160e01b600052604160045260246000fd5b60005b83811015620002e3578181015183820152602001620002c9565b50506000910152565b600082601f830112620002fe57600080fd5b81516001600160401b03808211156200031b576200031b620002b0565b604051601f8301601f19908116603f01168101908282118183101715620003465762000346620002b0565b816040528381528660208588010111156200036057600080fd5b62000373846020830160208901620002c6565b9695505050505050565b600080600080608085870312156200039457600080fd5b8451620003a18162000297565b60208601519094506001600160401b0380821115620003bf57600080fd5b620003cd88838901620002ec565b94506040870151915080821115620003e457600080fd5b50620003f387828801620002ec565b9250506060850151620004068162000297565b939692955090935050565b600181811c908216806200042657607f821691505b6020821081036200044757634e487b7160e01b600052602260045260246000fd5b50919050565b601f8211156200049b57600081815260208120601f850160051c81016020861015620004765750805b601f850160051c820191505b81811015620004975782815560010162000482565b5050505b505050565b81516001600160401b03811115620004bc57620004bc620002b0565b620004d481620004cd845462000411565b846200044d565b602080601f8311600181146200050c5760008415620004f35750858301515b600019600386901b1c1916600185901b17855562000497565b600085815260208120601f198616915b828110156200053d578886015182559484019460019091019084016200051c565b50858210156200055c5787850151600019600388901b60f8161c191681555b5050505050600190811b01905550565b6000825162000580818460208701620002c6565b9190910192915050565b6000602082840312156200059d57600080fd5b5051919050565b60805160a051611e96620005f460003960006108da01526000818161036a015281816106020152818161098c01528181610d5901528181610df001528181611361015261162e0152611e966000f3fe608060405234801561001057600080fd5b50600436106102945760003560e01c806394bf804d11610167578063c6e6f592116100ce578063e1a4521811610087578063e1a45218146105aa578063e7ca856d146105b3578063ef8b30f714610503578063f2fde38b146105c6578063f46ac8ce146105d9578063fcdfd5c5146105e257600080fd5b8063c6e6f59214610503578063cbd56e1d14610516578063ce96cb7714610542578063cf09e0d014610555578063d905777e1461055e578063dd62ed3e1461057157600080fd5b8063b3d7f6b911610120578063b3d7f6b9146104b9578063b460af94146104cc578063b8a457c3146104df578063ba087652146104e8578063bb21a997146104fb578063c63d75b6146103a257600080fd5b806394bf804d1461044857806395d89b411461045b578063a59aa5a614610463578063a6a1858f1461048b578063a9059cbb1461049e578063ad605729146104b157600080fd5b8063313ce5671161020b5780636e553f65116101c45780636e553f65146103e157806370a08231146103f4578063715018a61461041d5780638933ab6d146104255780638da5cb5b1461042e5780638f8c8aee1461043f57600080fd5b8063313ce5671461034e57806338d52e0f14610368578063402d267d146103a257806340bd2e23146103b75780634cdad506146102d25780635aa68ac0146103cc57600080fd5b80630a28a4771161025d5780630a28a477146103085780630ace9ca01461031b57806318160ddd1461032357806323b872dd1461032b5780632843594f1461033e5780632fdc19a21461034657600080fd5b80621504641461029957806301e1d114146102b557806306fdde03146102bd57806307a2d13a146102d2578063095ea7b3146102e5575b600080fd5b6102a2611d4c81565b6040519081526020015b60405180910390f35b6102a26105eb565b6102c56106ab565b6040516102ac9190611a25565b6102a26102e0366004611a58565b61073d565b6102f86102f3366004611a8d565b610750565b60405190151581526020016102ac565b6102a2610316366004611a58565b610768565b6102c5610775565b6002546102a2565b6102f8610339366004611ab7565b610803565b6102a2610829565b6102a261085a565b6103566108d2565b60405160ff90911681526020016102ac565b7f00000000000000000000000000000000000000000000000000000000000000005b6040516001600160a01b0390911681526020016102ac565b6102a26103b0366004611af3565b5060001990565b6103ca6103c5366004611a58565b610903565b005b6103d4610a78565b6040516102ac9190611b0e565b6102a26103ef366004611b5b565b610ad9565b6102a2610402366004611af3565b6001600160a01b031660009081526020819052604090205490565b6103ca610af6565b6102a26103e881565b6005546001600160a01b031661038a565b6102a260095481565b6102a2610456366004611b5b565b610b0a565b6102c5610b27565b61046b610b36565b6040805194855260208501939093529183015260608201526080016102ac565b60065461038a906001600160a01b031681565b6102f86104ac366004611a8d565b610b62565b600c546102a2565b6102a26104c7366004611a58565b610b70565b6102a26104da366004611b87565b610b7d565b6102a2600b5481565b6102a26104f6366004611b87565b610bd5565b6103ca610c24565b6102a2610511366004611a58565b610c2c565b6102f8610524366004611af3565b6001600160a01b03166000908152600d602052604090205460ff1690565b6102a2610550366004611af3565b610c39565b6102a260085481565b6102a261056c366004611af3565b610c5d565b6102a261057f366004611bc3565b6001600160a01b03918216600090815260016020908152604080832093909416825291909152205490565b6102a261271081565b6103ca6105c1366004611a58565b610c7b565b6103ca6105d4366004611af3565b610f5f565b6102a26105dc81565b6102a2600a5481565b6000806105f661085a565b90506000600b546106247f000000000000000000000000000000000000000000000000000000000000000090565b6040516370a0823160e01b81523060048201526001600160a01b0391909116906370a0823190602401602060405180830381865afa15801561066a573d6000803e3d6000fd5b505050506040513d601f19601f8201168201806040525081019061068e9190611bed565b6106989190611c1c565b90506106a48282611c1c565b9250505090565b6060600380546106ba90611c2f565b80601f01602080910402602001604051908101604052809291908181526020018280546106e690611c2f565b80156107335780601f1061070857610100808354040283529160200191610733565b820191906000526020600020905b81548152906001019060200180831161071657829003601f168201915b5050505050905090565b600061074a826000610f9d565b92915050565b60003361075e818585610fd7565b5060019392505050565b600061074a826001610fe9565b6007805461078290611c2f565b80601f01602080910402602001604051908101604052809291908181526020018280546107ae90611c2f565b80156107fb5780601f106107d0576101008083540402835291602001916107fb565b820191906000526020600020905b8154815290600101906020018083116107de57829003601f168201915b505050505081565b600033610811858285611019565b61081c858585611084565b60019150505b9392505050565b60008061083461085a565b9050600b54811161084757600091505090565b600b546108549082611c69565b91505090565b600061086560025490565b6000036108725750600090565b6000600954426108829190611c69565b9050600061088f60025490565b9050600064496cebb800836108a6846101f4611c7c565b6108b09190611c7c565b6108ba9190611ca9565b905080600a546108ca9190611c1c565b935050505090565b60006108fe817f0000000000000000000000000000000000000000000000000000000000000000611cbd565b905090565b61090b6110e3565b610913611110565b600061091d610829565b9050808211156109745760405162461bcd60e51b815260206004820152601c60248201527f496e73756666696369656e74207969656c6420617661696c61626c650000000060448201526064015b60405180910390fd5b81600b60008282546109869190611c1c565b909155507f000000000000000000000000000000000000000000000000000000000000000090506001600160a01b031663a9059cbb6109cd6005546001600160a01b031690565b6040516001600160e01b031960e084901b1681526001600160a01b039091166004820152602481018590526044016020604051808303816000875af1158015610a1a573d6000803e3d6000fd5b505050506040513d601f19601f82011682018060405250810190610a3e9190611cd6565b5060405182815233907f229eeac7a586523fedf269a76fc2cb12180c3bf18df72b2f46554981a7e18b389060200160405180910390a25050565b6060600c80548060200260200160405190810160405280929190818152602001828054801561073357602002820191906000526020600020905b81546001600160a01b03168152600190910190602001808311610ab2575050505050905090565b6000610ae3611110565b610aec826111d3565b6108228383611298565b610afe6110e3565b610b0860006112be565b565b6000610b14611110565b610b1d826111d3565b6108228383611310565b6060600480546106ba90611c2f565b600080600080610b4560025490565b9350610b4f61085a565b600b54600c549596919590945092509050565b60003361075e818585611084565b600061074a826001610f9d565b600080610b8983610c39565b905080851115610bb257828582604051633fa733bb60e21b815260040161096b93929190611cf8565b6000610bbd86610768565b9050610bcc338686898561132e565b95945050505050565b600080610be183610c5d565b905080851115610c0a57828582604051632e52afbb60e21b815260040161096b93929190611cf8565b6000610c158661073d565b9050610bcc338686848a61132e565b610b08611110565b600061074a826000610fe9565b6001600160a01b03811660009081526020819052604081205461074a906000610f9d565b6001600160a01b03811660009081526020819052604081205461074a565b600081118015610c8c5750600c8111155b610cd85760405162461bcd60e51b815260206004820152601f60248201527f4d6f6e746873206d757374206265206265747765656e203120616e6420313200604482015260640161096b565b6000610ce360025490565b11610d225760405162461bcd60e51b815260206004820152600f60248201526e139bc819195c1bdcda5d1cc81e595d608a1b604482015260640161096b565b6000610d2d60025490565b90506000612ee083610d41846101f4611c7c565b610d4b9190611c7c565b610d559190611ca9565b90507f000000000000000000000000000000000000000000000000000000000000000060405163095ea7b360e01b8152306004820152602481018390526001600160a01b03919091169063095ea7b3906044016020604051808303816000875af1158015610dc7573d6000803e3d6000fd5b505050506040513d601f19601f82011682018060405250810190610deb9190611cd6565b5060007f0000000000000000000000000000000000000000000000000000000000000000604051306024820152604481018490526001600160a01b03919091169060640160408051601f198184030181529181526020820180516001600160e01b03166340c10f1960e01b17905251610e649190611d19565b6000604051808303816000865af19150503d8060008114610ea1576040519150601f19603f3d011682016040523d82523d6000602084013e610ea6565b606091505b5050905080610f025760405162461bcd60e51b815260206004820152602260248201527f4d696e74206661696c6564202d207661756c74206e6f7420617574686f72697a604482015261195960f21b606482015260840161096b565b610f0a611110565b81600a6000828254610f1c9190611c1c565b9091555050604080518381524260208201527ffe2ebf53456a69d7b70affc98b9021c791a9bce3af6fa5d24dfbc2db0f817b54910160405180910390a150505050565b610f676110e3565b6001600160a01b038116610f9157604051631e4fbdf760e01b81526000600482015260240161096b565b610f9a816112be565b50565b6000610822610faa6105eb565b610fb5906001611c1c565b610fc16000600a611e19565b600254610fce9190611c1c565b859190856113ee565b610fe4838383600161143d565b505050565b6000610822610ff982600a611e19565b6002546110069190611c1c565b61100e6105eb565b610fce906001611c1c565b6001600160a01b03838116600090815260016020908152604080832093861683529290522054600019811461107e578181101561106f57828183604051637dc7a0d960e11b815260040161096b93929190611cf8565b61107e8484848403600061143d565b50505050565b6001600160a01b0383166110ae57604051634b637e8f60e11b81526000600482015260240161096b565b6001600160a01b0382166110d85760405163ec442f0560e01b81526000600482015260240161096b565b610fe4838383611512565b6005546001600160a01b03163314610b085760405163118cdaa760e01b815233600482015260240161096b565b6002546000036111205742600955565b6000600954426111309190611c69565b90508060000361113d5750565b600061114860025490565b9050600064496cebb8008361115f846101f4611c7c565b6111699190611c7c565b6111739190611ca9565b905080600a60008282546111879190611c1c565b9091555050426009558015610fe457604080518281524260208201527ffe2ebf53456a69d7b70affc98b9021c791a9bce3af6fa5d24dfbc2db0f817b54910160405180910390a1505050565b6001600160a01b0381166000908152600d602052604090205460ff1615801561120457506001600160a01b03811615155b15610f9a57600c805460018082019092557fdf6966c971051c3d54ec59162606531493a51404a002842f56009d7e5cf4a8c70180546001600160a01b0319166001600160a01b0384169081179091556000818152600d6020526040808220805460ff1916909417909355915190917f31d3ac54da09405b02d1de0ee0de648de637fbdc111123be0d7fc31f2a544c0b91a250565b600060001960006112a885610c2c565b90506112b633858784611629565b949350505050565b600580546001600160a01b038381166001600160a01b0319831681179093556040519116919082907f8be0079c531659141344cd1fd0a4f28419497f9722a3daafe3b4186f6b6457e090600090a35050565b6000600019600061132085610b70565b90506112b633858388611629565b826001600160a01b0316856001600160a01b03161461135257611352838683611019565b61135c83826116ad565b6113877f000000000000000000000000000000000000000000000000000000000000000085846116e7565b826001600160a01b0316846001600160a01b0316866001600160a01b03167ffbde797d201c681b91056529119e0b02407c7bb96a4a2c75c01fc9667232c8db85856040516113df929190918252602082015260400190565b60405180910390a45050505050565b6000806113fc868686611746565b90506114078361180a565b801561142357506000848061141e5761141e611c93565b868809115b15610bcc57611433600182611c1c565b9695505050505050565b6001600160a01b0384166114675760405163e602df0560e01b81526000600482015260240161096b565b6001600160a01b03831661149157604051634a1406b160e11b81526000600482015260240161096b565b6001600160a01b038085166000908152600160209081526040808320938716835292905220829055801561107e57826001600160a01b0316846001600160a01b03167f8c5be1e5ebec7d5bd14f71427d1e84f3dd0314c0f7b2291e5b200ac8c7c3b9258460405161150491815260200190565b60405180910390a350505050565b6001600160a01b03831661153d5780600260008282546115329190611c1c565b9091555061159c9050565b6001600160a01b0383166000908152602081905260409020548181101561157d5783818360405163391434e360e21b815260040161096b93929190611cf8565b6001600160a01b03841660009081526020819052604090209082900390555b6001600160a01b0382166115b8576002805482900390556115d7565b6001600160a01b03821660009081526020819052604090208054820190555b816001600160a01b0316836001600160a01b03167fddf252ad1be2c89b69c2b068fc378daa952ba7f163c4a11628f55a4df523b3ef8360405161161c91815260200190565b60405180910390a3505050565b6116557f0000000000000000000000000000000000000000000000000000000000000000853085611837565b61165f8382611870565b826001600160a01b0316846001600160a01b03167fdcbc1c05240f31ff3ad067ef1ee35ce4997762752e3a095284754544f4c709d78484604051611504929190918252602082015260400190565b6001600160a01b0382166116d757604051634b637e8f60e11b81526000600482015260240161096b565b6116e382600083611512565b5050565b6040516001600160a01b03838116602483015260448201839052610fe491859182169063a9059cbb906064015b604051602081830303815290604052915060e01b6020820180516001600160e01b0383818316178352505050506118a6565b600083830281600019858709828110838203039150508060000361177d5783828161177357611773611c93565b0492505050610822565b80841161179d5760405163227bc15360e01b815260040160405180910390fd5b6000848688096000868103871696879004966002600389028118808a02820302808a02820302808a02820302808a02820302808a02820302808a02909103029181900381900460010186841190950394909402919094039290920491909117919091029150509392505050565b6000600282600381111561182057611820611e28565b61182a9190611e3e565b60ff166001149050919050565b6040516001600160a01b03848116602483015283811660448301526064820183905261107e9186918216906323b872dd90608401611714565b6001600160a01b03821661189a5760405163ec442f0560e01b81526000600482015260240161096b565b6116e360008383611512565b60006118bb6001600160a01b03841683611909565b905080516000141580156118e05750808060200190518101906118de9190611cd6565b155b15610fe457604051635274afe760e01b81526001600160a01b038416600482015260240161096b565b60606108228383600084600080856001600160a01b0316848660405161192f9190611d19565b60006040518083038185875af1925050503d806000811461196c576040519150601f19603f3d011682016040523d82523d6000602084013e611971565b606091505b50915091506114338683836060826119915761198c826119d8565b610822565b81511580156119a857506001600160a01b0384163b155b156119d157604051639996b31560e01b81526001600160a01b038516600482015260240161096b565b5080610822565b8051156119e85780518082602001fd5b604051630a12f52160e11b815260040160405180910390fd5b60005b83811015611a1c578181015183820152602001611a04565b50506000910152565b6020815260008251806020840152611a44816040850160208701611a01565b601f01601f19169190910160400192915050565b600060208284031215611a6a57600080fd5b5035919050565b80356001600160a01b0381168114611a8857600080fd5b919050565b60008060408385031215611aa057600080fd5b611aa983611a71565b946020939093013593505050565b600080600060608486031215611acc57600080fd5b611ad584611a71565b9250611ae360208501611a71565b9150604084013590509250925092565b600060208284031215611b0557600080fd5b61082282611a71565b6020808252825182820181905260009190848201906040850190845b81811015611b4f5783516001600160a01b031683529284019291840191600101611b2a565b50909695505050505050565b60008060408385031215611b6e57600080fd5b82359150611b7e60208401611a71565b90509250929050565b600080600060608486031215611b9c57600080fd5b83359250611bac60208501611a71565b9150611bba60408501611a71565b90509250925092565b60008060408385031215611bd657600080fd5b611bdf83611a71565b9150611b7e60208401611a71565b600060208284031215611bff57600080fd5b5051919050565b634e487b7160e01b600052601160045260246000fd5b8082018082111561074a5761074a611c06565b600181811c90821680611c4357607f821691505b602082108103611c6357634e487b7160e01b600052602260045260246000fd5b50919050565b8181038181111561074a5761074a611c06565b808202811582820484141761074a5761074a611c06565b634e487b7160e01b600052601260045260246000fd5b600082611cb857611cb8611c93565b500490565b60ff818116838216019081111561074a5761074a611c06565b600060208284031215611ce857600080fd5b8151801515811461082257600080fd5b6001600160a01b039390931683526020830191909152604082015260600190565b60008251611d2b818460208701611a01565b9190910192915050565b600181815b80851115611d70578160001904821115611d5657611d56611c06565b80851615611d6357918102915b93841c9390800290611d3a565b509250929050565b600082611d875750600161074a565b81611d945750600061074a565b8160018114611daa5760028114611db457611dd0565b600191505061074a565b60ff841115611dc557611dc5611c06565b50506001821b61074a565b5060208310610133831016604e8410600b8410161715611df3575081810a61074a565b611dfd8383611d35565b8060001904821115611e1157611e11611c06565b029392505050565b600061082260ff841683611d78565b634e487b7160e01b600052602160045260246000fd5b600060ff831680611e5157611e51611c93565b8060ff8416069150509291505056fea264697066735822122031be3308ebf4f3c2cfd73300d47cc46e288694f2035b1233fd6935932c28684164736f6c63430008140033",
  "devdoc": {
    "details": "Generates 5% APY through time-based accrual, distributes to whale/retail/students",
    "errors": {
      "AddressEmptyCode(address)": [
        {
          "details": "There's no code at `target` (it is not a contract)."
        }
      ],
      "AddressInsufficientBalance(address)": [
        {
          "details": "The ETH balance of the account is not enough to perform the operation."
        }
      ],
      "ERC20InsufficientAllowance(address,uint256,uint256)": [
        {
          "details": "Indicates a failure with the `spender`s `allowance`. Used in transfers.",
          "params": {
            "allowance": "Amount of tokens a `spender` is allowed to operate with.",
            "needed": "Minimum amount required to perform a transfer.",
            "spender": "Address that may be allowed to operate on tokens without being their owner."
          }
        }
      ],
      "ERC20InsufficientBalance(address,uint256,uint256)": [
        {
          "details": "Indicates an error related to the current `balance` of a `sender`. Used in transfers.",
          "params": {
            "balance": "Current balance for the interacting account.",
            "needed": "Minimum amount required to perform a transfer.",
            "sender": "Address whose tokens are being transferred."
          }
        }
      ],
      "ERC20InvalidApprover(address)": [
        {
          "details": "Indicates a failure with the `approver` of a token to be approved. Used in approvals.",
          "params": {
            "approver": "Address initiating an approval operation."
          }
        }
      ],
      "ERC20InvalidReceiver(address)": [
        {
          "details": "Indicates a failure with the token `receiver`. Used in transfers.",
          "params": {
            "receiver": "Address to which tokens are being transferred."
          }
        }
      ],
      "ERC20InvalidSender(address)": [
        {
          "details": "Indicates a failure with the token `sender`. Used in transfers.",
          "params": {
            "sender": "Address whose tokens are being transferred."
          }
        }
      ],
      "ERC20InvalidSpender(address)": [
        {
          "details": "Indicates a failure with the `spender` to be approved. Used in approvals.",
          "params": {
            "spender": "Address that may be allowed to operate on tokens without being their owner."
          }
        }
      ],
      "ERC4626ExceededMaxDeposit(address,uint256,uint256)": [
        {
          "details": "Attempted to deposit more assets than the max amount for `receiver`."
        }
      ],
      "ERC4626ExceededMaxMint(address,uint256,uint256)": [
        {
          "details": "Attempted to mint more shares than the max amount for `receiver`."
        }
      ],
      "ERC4626ExceededMaxRedeem(address,uint256,uint256)": [
        {
          "details": "Attempted to redeem more shares than the max amount for `receiver`."
        }
      ],
      "ERC4626ExceededMaxWithdraw(address,uint256,uint256)": [
        {
          "details": "Attempted to withdraw more assets than the max amount for `receiver`."
        }
      ],
      "FailedInnerCall()": [
        {
          "details": "A call to an address target failed. The target may have reverted."
        }
      ],
      "MathOverflowedMulDiv()": [
        {
          "details": "Muldiv operation overflow."
        }
      ],
      "OwnableInvalidOwner(address)": [
        {
          "details": "The owner is not a valid owner account. (eg. `address(0)`)"
        }
      ],
      "OwnableUnauthorizedAccount(address)": [
        {
          "details": "The caller account is not authorized to perform an operation."
        }
      ],
      "SafeERC20FailedOperation(address)": [
        {
          "details": "An operation with an ERC20 token failed."
        }
      ]
    },
    "events": {
      "Approval(address,address,uint256)": {
        "details": "Emitted when the allowance of a `spender` for an `owner` is set by a call to {approve}. `value` is the new allowance."
      },
      "Transfer(address,address,uint256)": {
        "details": "Emitted when `value` tokens are moved from one account (`from`) to another (`to`). Note that `value` may be zero."
      }
    },
    "kind": "dev",
    "methods": {
      "allowance(address,address)": {
        "details": "See {IERC20-allowance}."
      },
      "approve(address,uint256)": {
        "details": "See {IERC20-approve}. NOTE: If `value` is the maximum `uint256`, the allowance is not updated on `transferFrom`. This is semantically equivalent to an infinite approval. Requirements: - `spender` cannot be the zero address."
      },
      "asset()": {
        "details": "See {IERC4626-asset}. "
      },
      "balanceOf(address)": {
        "details": "See {IERC20-balanceOf}."
      },
      "claimYield(uint256)": {
        "params": {
          "amount": "Amount of yield to claim"
        }
      },
      "constructor": {
        "params": {
          "asset_": "Address of underlying asset (USDC)",
          "name_": "Vault name",
          "symbol_": "Vault share symbol",
          "whale_": "Address of vault creator"
        }
      },
      "convertToAssets(uint256)": {
        "details": "See {IERC4626-convertToAssets}. "
      },
      "convertToShares(uint256)": {
        "details": "See {IERC4626-convertToShares}. "
      },
      "decimals()": {
        "details": "Decimals are computed by adding the decimal offset on top of the underlying asset's decimals. This \"original\" value is cached during construction of the vault contract. If this read operation fails (e.g., the asset has not been created yet), a default of 18 is used to represent the underlying asset's decimals. See {IERC20Metadata-decimals}."
      },
      "deposit(uint256,address)": {
        "details": "Overrides ERC4626 deposit to add participant tracking and yield update"
      },
      "getAccruedYield()": {
        "returns": {
          "_0": "Yield accrued since last update"
        }
      },
      "getAvailableYield()": {
        "returns": {
          "_0": "Available yield (total yield - claimed yield)"
        }
      },
      "getParticipantCount()": {
        "returns": {
          "_0": "Number of unique depositors"
        }
      },
      "getParticipants()": {
        "returns": {
          "_0": "Array of participant addresses"
        }
      },
      "getVaultStats()": {
        "returns": {
          "participantCount": "Number of depositors",
          "totalDeposits": "Total principal deposited",
          "yieldDistributed": "Total yield distributed",
          "yieldGenerated": "Total yield generated"
        }
      },
      "isParticipantAddress(address)": {
        "params": {
          "account": "Address to check"
        },
        "returns": {
          "_0": "Boolean indicating if address has deposited"
        }
      },
      "maxDeposit(address)": {
        "details": "See {IERC4626-maxDeposit}. "
      },
      "maxMint(address)": {
        "details": "See {IERC4626-maxMint}. "
      },
      "maxRedeem(address)": {
        "details": "See {IERC4626-maxRedeem}. "
      },
      "maxWithdraw(address)": {
        "details": "See {IERC4626-maxWithdraw}. "
      },
      "mint(uint256,address)": {
        "details": "Overrides ERC4626 mint to add participant tracking and yield update"
      },
      "name()": {
        "details": "Returns the name of the token."
      },
      "owner()": {
        "details": "Returns the address of the current owner."
      },
      "previewDeposit(uint256)": {
        "details": "See {IERC4626-previewDeposit}. "
      },
      "previewMint(uint256)": {
        "details": "See {IERC4626-previewMint}. "
      },
      "previewRedeem(uint256)": {
        "details": "See {IERC4626-previewRedeem}. "
      },
      "previewWithdraw(uint256)": {
        "details": "See {IERC4626-previewWithdraw}. "
      },
      "redeem(uint256,address,address)": {
        "details": "See {IERC4626-redeem}. "
      },
      "renounceOwnership()": {
        "details": "Leaves the contract without owner. It will not be possible to call `onlyOwner` functions. Can only be called by the current owner. NOTE: Renouncing ownership will leave the contract without an owner, thereby disabling any functionality that is only available to the owner."
      },
      "simulateYield(uint256)": {
        "details": "Mints real USDC tokens based on 5% APY calculationPublic function for demo - allows anyone to generate yield for testing",
        "params": {
          "months": "Number of months of yield to generate (1-12)"
        }
      },
      "symbol()": {
        "details": "Returns the symbol of the token, usually a shorter version of the name."
      },
      "totalAssets()": {
        "details": "Override ERC4626 to include mock yield generation",
        "returns": {
          "_0": "Total assets (principal + accrued yield - claimed yield)"
        }
      },
      "totalSupply()": {
        "details": "See {IERC20-totalSupply}."
      },
      "transfer(address,uint256)": {
        "details": "See {IERC20-transfer}. Requirements: - `to` cannot be the zero address. - the caller must have a balance of at least `value`."
      },
      "transferFrom(address,address,uint256)": {
        "details": "See {IERC20-transferFrom}. Emits an {Approval} event indicating the updated allowance. This is not required by the EIP. See the note at the beginning of {ERC20}. NOTE: Does not update the allowance if the current allowance is the maximum `uint256`. Requirements: - `from` and `to` cannot be the zero address. - `from` must have a balance of at least `value`. - the caller must have allowance for ``from``'s tokens of at least `value`."
      },
      "transferOwnership(address)": {
        "details": "Transfers ownership of the contract to a new account (`newOwner`). Can only be called by the current owner."
      },
      "updateYield()": {
        "details": "Public function to trigger yield accrual without state changes"
      },
      "withdraw(uint256,address,address)": {
        "details": "See {IERC4626-withdraw}. "
      }
    },
    "title": "EndaomentVault",
    "version": 1
  },
  "userdoc": {
    "kind": "user",
    "methods": {
      "claimYield(uint256)": {
        "notice": "Claim yield for distribution (only owner/AllocationManager)"
      },
      "constructor": {
        "notice": "Initialize EndaomentVault"
      },
      "deposit(uint256,address)": {
        "notice": "Deposit assets and receive shares"
      },
      "getAccruedYield()": {
        "notice": "Get currently accrued but not yet recorded yield"
      },
      "getAvailableYield()": {
        "notice": "Get available yield for distribution"
      },
      "getParticipantCount()": {
        "notice": "Get total number of participants"
      },
      "getParticipants()": {
        "notice": "Get all participant addresses"
      },
      "getVaultStats()": {
        "notice": "Get vault statistics"
      },
      "isParticipantAddress(address)": {
        "notice": "Check if address is a participant"
      },
      "mint(uint256,address)": {
        "notice": "Mint shares for specified assets"
      },
      "simulateYield(uint256)": {
        "notice": "Simulate yield generation by minting USDC for demo purposes"
      },
      "totalAssets()": {
        "notice": "Calculate total assets including accrued yield"
      },
      "updateYield()": {
        "notice": "Manually update yield calculation"
      }
    },
    "notice": "ERC-4626 tokenized vault with mock yield generation for student funding",
    "version": 1
  },
  "storageLayout": {
    "storage": [
      {
        "astId": 477,
        "contract": "contracts/EndaomentVault.sol:EndaomentVault",
        "label": "_balances",
        "offset": 0,
        "slot": "0",
        "type": "t_mapping(t_address,t_uint256)"
      },
      {
        "astId": 483,
        "contract": "contracts/EndaomentVault.sol:EndaomentVault",
        "label": "_allowances",
        "offset": 0,
        "slot": "1",
        "type": "t_mapping(t_address,t_mapping(t_address,t_uint256))"
      },
      {
        "astId": 485,
        "contract": "contracts/EndaomentVault.sol:EndaomentVault",
        "label": "_totalSupply",
        "offset": 0,
        "slot": "2",
        "type": "t_uint256"
      },
      {
        "astId": 487,
        "contract": "contracts/EndaomentVault.sol:EndaomentVault",
        "label": "_name",
        "offset": 0,
        "slot": "3",
        "type": "t_string_storage"
      },
      {
        "astId": 489,
        "contract": "contracts/EndaomentVault.sol:EndaomentVault",
        "label": "_symbol",
        "offset": 0,
        "slot": "4",
        "type": "t_string_storage"
      },
      {
        "astId": 8,
        "contract": "contracts/EndaomentVault.sol:EndaomentVault",
        "label": "_owner",
        "offset": 0,
        "slot": "5",
        "type": "t_address"
      },
      {
        "astId": 4361,
        "contract": "contracts/EndaomentVault.sol:EndaomentVault",
        "label": "whale",
        "offset": 0,
        "slot": "6",
        "type": "t_address"
      },
      {
        "astId": 4363,
        "contract": "contracts/EndaomentVault.sol:EndaomentVault",
        "label": "vaultName",
        "offset": 0,
        "slot": "7",
        "type": "t_string_storage"
      },
      {
        "astId": 4365,
        "contract": "contracts/EndaomentVault.sol:EndaomentVault",
        "label": "createdAt",
        "offset": 0,
        "slot": "8",
        "type": "t_uint256"
      },
      {
        "astId": 4367,
        "contract": "contracts/EndaomentVault.sol:EndaomentVault",
        "label": "lastYieldUpdate",
        "offset": 0,
        "slot": "9",
        "type": "t_uint256"
      },
      {
        "astId": 4369,
        "contract": "contracts/EndaomentVault.sol:EndaomentVault",
        "label": "accumulatedYield",
        "offset": 0,
        "slot": "10",
        "type": "t_uint256"
      },
      {
        "astId": 4371,
        "contract": "contracts/EndaomentVault.sol:EndaomentVault",
        "label": "totalYieldClaimed",
        "offset": 0,
        "slot": "11",
        "type": "t_uint256"
      },
      {
        "astId": 4374,
        "contract": "contracts/EndaomentVault.sol:EndaomentVault",
        "label": "participants",
        "offset": 0,
        "slot": "12",
        "type": "t_array(t_address)dyn_storage"
      },
      {
        "astId": 4378,
        "contract": "contracts/EndaomentVault.sol:EndaomentVault",
        "label": "isParticipant",
        "offset": 0,
        "slot": "13",
        "type": "t_mapping(t_address,t_bool)"
      }
    ],
    "types": {
      "t_address": {
        "encoding": "inplace",
        "label": "address",
        "numberOfBytes": "20"
      },
      "t_array(t_address)dyn_storage": {
        "base": "t_address",
        "encoding": "dynamic_array",
        "label": "address[]",
        "numberOfBytes": "32"
      },
      "t_bool": {
        "encoding": "inplace",
        "label": "bool",
        "numberOfBytes": "1"
      },
      "t_mapping(t_address,t_bool)": {
        "encoding": "mapping",
        "key": "t_address",
        "label": "mapping(address => bool)",
        "numberOfBytes": "32",
        "value": "t_bool"
      },
      "t_mapping(t_address,t_mapping(t_address,t_uint256))": {
        "encoding": "mapping",
        "key": "t_address",
        "label": "mapping(address => mapping(address => uint256))",
        "numberOfBytes": "32",
        "value": "t_mapping(t_address,t_uint256)"
      },
      "t_mapping(t_address,t_uint256)": {
        "encoding": "mapping",
        "key": "t_address",
        "label": "mapping(address => uint256)",
        "numberOfBytes": "32",
        "value": "t_uint256"
      },
      "t_string_storage": {
        "encoding": "bytes",
        "label": "string",
        "numberOfBytes": "32"
      },
      "t_uint256": {
        "encoding": "inplace",
        "label": "uint256",
        "numberOfBytes": "32"
      }
    }
  }
}